{
  "transactions": [
    {
      "hash": "0x3860b300aa2db873907e326edd7afeb51f2abff9f1e6609ec2824f5fc564808f",
      "transactionType": "CALL",
      "contractName": null,
      "contractAddress": "0x8c4bcbe6b9ef47855f97e675296fa3f6fafa5f1a",
      "function": "initialize((address,address,uint24,int24,address),uint160)",
      "arguments": [
        "(0x0000000000000000000000000000000000000000, 0x779877A7B0D9E8603169DdbD7836e478b4624789, 3000, 60, 0x3c5D21865e0f344f1dd69cC9Fc4dF775Da3440A8)",
        "102010509675000000000000000000000"
      ],
      "transaction": {
        "from": "0xab9a1731c61123a5e8c142dde0de49a744ebd4ca",
        "to": "0x8c4bcbe6b9ef47855f97e675296fa3f6fafa5f1a",
        "gas": "0x11862",
        "value": "0x0",
        "input": "0x6276cbbe0000000000000000000000000000000000000000000000000000000000000000000000000000000000000000779877a7b0d9e8603169ddbd7836e478b46247890000000000000000000000000000000000000000000000000000000000000bb8000000000000000000000000000000000000000000000000000000000000003c0000000000000000000000003c5d21865e0f344f1dd69cc9fc4df775da3440a800000000000000000000000000000000000005078dbbe13b6dae72e9ace00000",
        "nonce": "0x6",
        "chainId": "0xaa36a7"
      },
      "additionalContracts": [],
      "isFixedGasLimit": false
    }
  ],
  "receipts": [
    {
      "status": "0x1",
      "cumulativeGasUsed": "0x5b9b91",
      "logs": [
        {
          "address": "0x8c4bcbe6b9ef47855f97e675296fa3f6fafa5f1a",
          "topics": [
            "0xdd466e674ea557f56295e2d0218a125ea4b4f0f6f3307b95f85e6110838d6438",
            "0x891660ea9bd7a07023bcfc36c4419987cde5a9c7317bbd407274c08ff37d20d9",
            "0x0000000000000000000000000000000000000000000000000000000000000000",
            "0x000000000000000000000000779877a7b0d9e8603169ddbd7836e478b4624789"
          ],
          "data": "0x0000000000000000000000000000000000000000000000000000000000000bb8000000000000000000000000000000000000000000000000000000000000003c0000000000000000000000003c5d21865e0f344f1dd69cc9fc4df775da3440a800000000000000000000000000000000000005078dbbe13b6dae72e9ace000000000000000000000000000000000000000000000000000000000000000022f71",
          "blockHash": "0x54566d4484c8bd6e0c976a4b852a83510c440aec5d2dc905dea08cd827bff7e1",
          "blockNumber": "0x6dd87c",
          "transactionHash": "0x3860b300aa2db873907e326edd7afeb51f2abff9f1e6609ec2824f5fc564808f",
          "transactionIndex": "0x38",
          "logIndex": "0x4f",
          "removed": false
        }
      ],
      "logsBloom": "0x04000000000000000000000000000000000000000000000000000000000000000000000000000000000000000000000000000000000000000000000000000000000000000000000000000000000000000000000000000000000800000000000000000000020000000000000000000800000040000000000000000000000000000000000000000008000000000000000000000001000000000000000000200000000800000000000000000000000000000000000000000000000000000000000000000000000000000000000000800000000020000000000000000002000020100000000000000100000000000000000000000000000000000000000000000000",
      "type": "0x2",
      "transactionHash": "0x3860b300aa2db873907e326edd7afeb51f2abff9f1e6609ec2824f5fc564808f",
      "transactionIndex": "0x38",
      "blockHash": "0x54566d4484c8bd6e0c976a4b852a83510c440aec5d2dc905dea08cd827bff7e1",
      "blockNumber": "0x6dd87c",
      "gasUsed": "0xcaff",
      "effectiveGasPrice": "0x751a58c",
      "from": "0xab9a1731c61123a5e8c142dde0de49a744ebd4ca",
      "to": "0x8c4bcbe6b9ef47855f97e675296fa3f6fafa5f1a",
      "contractAddress": null
    }
  ],
  "libraries": [],
  "pending": [],
  "returns": {},
  "timestamp": 1733178122,
  "chain": 11155111,
  "commit": "f7e14ce"
}