{
  "transactions": [
    {
      "hash": "0x210b5c779b56fb881cffe8b381be64b46e5b3b200cc0e97f6577b3660d92e9c0",
      "transactionType": "CALL",
      "contractName": null,
      "contractAddress": "0x8c4bcbe6b9ef47855f97e675296fa3f6fafa5f1a",
      "function": "initialize((address,address,uint24,int24,address),uint160)",
      "arguments": [
        "(0x0000000000000000000000000000000000000000, 0x779877A7B0D9E8603169DdbD7836e478b4624789, 3000, 60, 0xA539b90b0bee1EBd567B43B6007d1790028d00A8)",
        "102010509675000000000000000000000"
      ],
      "transaction": {
        "from": "0xab9a1731c61123a5e8c142dde0de49a744ebd4ca",
        "to": "0x8c4bcbe6b9ef47855f97e675296fa3f6fafa5f1a",
        "gas": "0x11841",
        "value": "0x0",
        "input": "0x6276cbbe0000000000000000000000000000000000000000000000000000000000000000000000000000000000000000779877a7b0d9e8603169ddbd7836e478b46247890000000000000000000000000000000000000000000000000000000000000bb8000000000000000000000000000000000000000000000000000000000000003c000000000000000000000000a539b90b0bee1ebd567b43b6007d1790028d00a800000000000000000000000000000000000005078dbbe13b6dae72e9ace00000",
        "nonce": "0x4",
        "chainId": "0xaa36a7"
      },
      "additionalContracts": [],
      "isFixedGasLimit": false
    }
  ],
  "receipts": [
    {
      "status": "0x1",
      "cumulativeGasUsed": "0xe43b99",
      "logs": [
        {
          "address": "0x8c4bcbe6b9ef47855f97e675296fa3f6fafa5f1a",
          "topics": [
            "0xdd466e674ea557f56295e2d0218a125ea4b4f0f6f3307b95f85e6110838d6438",
            "0x27b8f63538adfac3d7cf73bbfeb35a432cd5b3f25daac49568a071e6394723ad",
            "0x0000000000000000000000000000000000000000000000000000000000000000",
            "0x000000000000000000000000779877a7b0d9e8603169ddbd7836e478b4624789"
          ],
          "data": "0x0000000000000000000000000000000000000000000000000000000000000bb8000000000000000000000000000000000000000000000000000000000000003c000000000000000000000000a539b90b0bee1ebd567b43b6007d1790028d00a800000000000000000000000000000000000005078dbbe13b6dae72e9ace000000000000000000000000000000000000000000000000000000000000000022f71",
          "blockHash": "0x0637f6070b9458b62e2d00227285f88c4fb3a7464ae8e564dbeb7834809d001d",
          "blockNumber": "0x6dd687",
          "transactionHash": "0x210b5c779b56fb881cffe8b381be64b46e5b3b200cc0e97f6577b3660d92e9c0",
          "transactionIndex": "0xc6",
          "logIndex": "0xfe",
          "removed": false
        }
      ],
      "logsBloom": "0x00000000000000000000000000000000000000000000000000000000000000000000000000000000000000000000000000000000000000000000000000000000000000000000000000000000000000000000000000000000000800000000000000000000020000000000000000000800000000000000000000000000000800000000000000000008000000000000000000000001000000000000000000200000000800000000000000000000000000000000000000000000000000000000400000000000000000000000000000800000000020000000000000000002000020000000000000000100000000000000000000000020000000000000000000000000",
      "type": "0x2",
      "transactionHash": "0x210b5c779b56fb881cffe8b381be64b46e5b3b200cc0e97f6577b3660d92e9c0",
      "transactionIndex": "0xc6",
      "blockHash": "0x0637f6070b9458b62e2d00227285f88c4fb3a7464ae8e564dbeb7834809d001d",
      "blockNumber": "0x6dd687",
      "gasUsed": "0xcae7",
      "effectiveGasPrice": "0x632ac499",
      "from": "0xab9a1731c61123a5e8c142dde0de49a744ebd4ca",
      "to": "0x8c4bcbe6b9ef47855f97e675296fa3f6fafa5f1a",
      "contractAddress": null
    }
  ],
  "libraries": [],
  "pending": [],
  "returns": {},
  "timestamp": 1733171789,
  "chain": 11155111,
  "commit": "d1f16b8"
}